{"abi":[{"anonymous":false,"inputs":[{"indexed":false,"internalType":"address","name":"","type":"address"},{"indexed":false,"internalType":"address","name":"","type":"address"}],"name":"MoveOwnership","type":"event"},{"inputs":[],"name":"bidContract","outputs":[],"stateMutability":"payable","type":"function"},{"inputs":[{"internalType":"contract IERC20","name":"__token","type":"address"}],"name":"canDeposit","outputs":[{"internalType":"bool","name":"","type":"bool"}],"stateMutability":"view","type":"function"},{"inputs":[{"internalType":"address","name":"_token","type":"address"},{"internalType":"uint256","name":"_amount","type":"uint256"}],"name":"depositTokens","outputs":[],"stateMutability":"nonpayable","type":"function"},{"inputs":[{"internalType":"address","name":"new_contract_owner","type":"address"}],"name":"moveOwnership","outputs":[],"stateMutability":"nonpayable","type":"function"},{"inputs":[{"internalType":"uint256","name":"_amount","type":"uint256"}],"name":"placeOnSaleInGwei","outputs":[],"stateMutability":"nonpayable","type":"function"},{"inputs":[],"name":"revokeSale","outputs":[],"stateMutability":"nonpayable","type":"function"},{"inputs":[],"name":"sellContract","outputs":[],"stateMutability":"nonpayable","type":"function"},{"inputs":[],"name":"withdrawTokens","outputs":[],"stateMutability":"nonpayable","type":"function"}],"bytecode":"60806040526000805460ff60a01b1916905534801561001d57600080fd5b50600080546001600160a01b0319163390811782556040805192835260208301919091527ff25e5c775abc4fde8672e6c495f9a9f0fe279bc7640d95896b49dad0fb4e6d68910160405180910390a1610e8a8061007b6000396000f3fe60806040526004361061007b5760003560e01c80638d8f2adb1161004e5780638d8f2adb14610116578063c3d22fb61461012b578063d54e255e14610140578063fe741fad1461014857600080fd5b806311f9cf20146100805780634bf0d331146100a257806366168bd7146100d657806379ff433d146100f6575b600080fd5b34801561008c57600080fd5b506100a061009b366004610d52565b61015d565b005b3480156100ae57600080fd5b506100c26100bd366004610d83565b6102eb565b604051901515815260200160405180910390f35b3480156100e257600080fd5b506100a06100f1366004610da7565b610313565b34801561010257600080fd5b506100a0610111366004610d83565b6105e3565b34801561012257600080fd5b506100a06106ab565b34801561013757600080fd5b506100a061080f565b6100a06109da565b34801561015457600080fd5b506100a0610c43565b6000546001600160a01b031633146101905760405162461bcd60e51b815260040161018790610dd3565b60405180910390fd5b600054600160a01b900460ff16156101f65760405162461bcd60e51b815260206004820152602360248201527f436f6e747261637420697320666f722073616c6520617420746865206d6f6d65604482015262373a1760e91b6064820152608401610187565b6032600454101561026f5760405162461bcd60e51b815260206004820152603f60248201527f5468657265206d7573742062652061206d696e696d756d206f6620313030207460448201527f6f6b656e7320746f206c69737420636f6e7472616374206f6e2073616c652e006064820152608401610187565b676f05b59d3b2000008111156102c75760405162461bcd60e51b815260206004820152601a60248201527f416d6f756e74206d757374206265203c3d20382065746865722e0000000000006044820152606401610187565b6000805460ff60a01b198116600160a01b9182900460ff1615909102179055600355565b6005546000906001600160a01b03908116801591841614818061030b5750805b949350505050565b6000546001600160a01b0316331461033d5760405162461bcd60e51b815260040161018790610dd3565b600054600160a01b900460ff161561038d5760405162461bcd60e51b8152602060048201526013602482015272436f6e7472616374206973206f6e2073616c6560681b6044820152606401610187565b6001600160a01b0382166103d85760405162461bcd60e51b81526020600482015260126024820152715a65726f20746f6b656e206164647265737360701b6044820152606401610187565b6103e1826102eb565b61046a5760405162461bcd60e51b815260206004820152604e60248201527f596f752063616e6e6f742068617665203220646966666572656e7420746f6b6560448201527f6e7320696e207468697320636f6e74726163742c20576974686472617720657860648201526d34b9ba34b733903a37b5b2b7399760911b608482015260a401610187565b600580546001600160a01b0319166001600160a01b038416908117909155604051636eb1769f60e11b815233600482015230602482015282919063dd62ed3e90604401602060405180830381865afa1580156104ca573d6000803e3d6000fd5b505050506040513d601f19601f820116820180604052508101906104ee9190610df3565b101561054c5760405162461bcd60e51b815260206004820152602760248201527f596f7520646f6e2774206861766520656e6f75676820616c6c6f77616e6365206044820152663a37b5b2b7399760c91b6064820152608401610187565b6005546040516323b872dd60e01b8152336004820152306024820152604481018390526001600160a01b03909116906323b872dd906064016020604051808303816000875af11580156105a3573d6000803e3d6000fd5b505050506040513d601f19601f820116820180604052508101906105c79190610e0c565b5080600460008282546105da9190610e2e565b90915550505050565b6000546001600160a01b0316331461060d5760405162461bcd60e51b815260040161018790610dd3565b6001600160a01b03811661064f5760405162461bcd60e51b815260206004820152600960248201526830204164647265737360b81b6044820152606401610187565b600080546001600160a01b0319166001600160a01b0383169081179091556040805133815260208101929092527ff25e5c775abc4fde8672e6c495f9a9f0fe279bc7640d95896b49dad0fb4e6d6891015b60405180910390a150565b6000546001600160a01b031633146106d55760405162461bcd60e51b815260040161018790610dd3565b600054600160a01b900460ff16156107265760405162461bcd60e51b815260206004820152601460248201527321b7b73a3930b1ba1034b99037b71039b0b6329760611b6044820152606401610187565b6000600454116107835760405162461bcd60e51b815260206004820152602260248201527f5468697320636f6e747261637420686173206e6f2073746f72656420746f6b656044820152616e7360f01b6064820152608401610187565b6005546004805460405163a9059cbb60e01b8152339281019290925260248201526001600160a01b039091169063a9059cbb906044016020604051808303816000875af11580156107d8573d6000803e3d6000fd5b505050506040513d601f19601f820116820180604052508101906107fc9190610e0c565b50600580546001600160a01b0319169055565b6000546001600160a01b031633146108395760405162461bcd60e51b815260040161018790610dd3565b600054600160a01b900460ff166108805760405162461bcd60e51b815260206004820152600b60248201526a4e6f74206f6e2073616c6560a81b6044820152606401610187565b6000600154116108c15760405162461bcd60e51b815260206004820152600c60248201526b2737903134b239903cb2ba1760a11b6044820152606401610187565b6002546001600160a01b031661090a5760405162461bcd60e51b815260206004820152600e60248201526d2737903134b23232b9103cb2ba1760911b6044820152606401610187565b600080546001546040516001600160a01b0390921692839282156108fc029291818181858888f19350505050158015610947573d6000803e3d6000fd5b5060025461095d906001600160a01b03166105e3565b600280546001600160a01b031916905560006001819055805460ff60a01b198116600160a01b80830460ff161502908117909255604080516001600160a01b038086168252928316929093169190911760208301527ff25e5c775abc4fde8672e6c495f9a9f0fe279bc7640d95896b49dad0fb4e6d6891016106a0565b600054600160a01b900460ff16610a435760405162461bcd60e51b815260206004820152602760248201527f436f6e7472616374206973206e6f7420666f722073616c65206174207468652060448201526636b7b6b2b73a1760c91b6064820152608401610187565b33610a865760405162461bcd60e51b81526020600482015260136024820152722a3c3710333937b690181030b2323932b9b99760691b6044820152606401610187565b6000546001600160a01b0316331415610ae15760405162461bcd60e51b815260206004820152601d60248201527f596f752063616e6e6f742062696420796f757220636f6e74726163742e0000006044820152606401610187565b60003411610b1e5760405162461bcd60e51b815260206004820152600a60248201526905072696365203c3d20360b41b6044820152606401610187565b600354341015610b685760405162461bcd60e51b81526020600482015260156024820152742134b2101e1021b7b73a3930b1ba10383934b1b29760591b6044820152606401610187565b6001543411610bcc5760405162461bcd60e51b815260206004820152602a60248201527f596f7572732069736e27742074686520686967686573742c20697420697320756044820152693730b1b1b2b83a32b21760b11b6064820152608401610187565b6000600154118015610be857506002546001600160a01b031615155b15610c2b576002546001546040516001600160a01b039092169181156108fc0291906000818181858888f19350505050158015610c29573d6000803e3d6000fd5b505b60028054346001556001600160a01b03191633179055565b6000546001600160a01b03163314610c6d5760405162461bcd60e51b815260040161018790610dd3565b600054600160a01b900460ff16610cbe5760405162461bcd60e51b815260206004820152601560248201527421b7b73a3930b1ba103737ba1037b71039b0b6329760591b6044820152606401610187565b6000805460ff60a01b198116600160a01b9182900460ff161590910217905560015415801590610cf857506002546001600160a01b031615155b15610d3b576002546001546040516001600160a01b039092169181156108fc0291906000818181858888f19350505050158015610d39573d6000803e3d6000fd5b505b600280546001600160a01b03191690556000600155565b600060208284031215610d6457600080fd5b5035919050565b6001600160a01b0381168114610d8057600080fd5b50565b600060208284031215610d9557600080fd5b8135610da081610d6b565b9392505050565b60008060408385031215610dba57600080fd5b8235610dc581610d6b565b946020939093013593505050565b60208082526006908201526510a7bbb732b960d11b604082015260600190565b600060208284031215610e0557600080fd5b5051919050565b600060208284031215610e1e57600080fd5b81518015158114610da057600080fd5b60008219821115610e4f57634e487b7160e01b600052601160045260246000fd5b50019056fea26469706673582212203a4915e8a734894ae5d8d4af44519127ea4f61c29f10eda44383dee507e6ee3b64736f6c634300080c0033","bytecodeSha1":"1c0b82b138a16e825b2b041d0c98d763cf6d7507","compiler":{"evm_version":"istanbul","optimizer":{"enabled":true,"runs":200},"version":"0.8.12+commit.f00d7308"},"contractName":"Sellable","language":"Solidity","natspec":{"kind":"dev","methods":{},"version":1},"opcodes":"PUSH1 0x80 PUSH1 0x40 MSTORE PUSH1 0x4 CALLDATASIZE LT PUSH2 0x7B JUMPI PUSH1 0x0 CALLDATALOAD PUSH1 0xE0 SHR DUP1 PUSH4 0x8D8F2ADB GT PUSH2 0x4E JUMPI DUP1 PUSH4 0x8D8F2ADB EQ PUSH2 0x116 JUMPI DUP1 PUSH4 0xC3D22FB6 EQ PUSH2 0x12B JUMPI DUP1 PUSH4 0xD54E255E EQ PUSH2 0x140 JUMPI DUP1 PUSH4 0xFE741FAD EQ PUSH2 0x148 JUMPI PUSH1 0x0 DUP1 REVERT JUMPDEST DUP1 PUSH4 0x11F9CF20 EQ PUSH2 0x80 JUMPI DUP1 PUSH4 0x4BF0D331 EQ PUSH2 0xA2 JUMPI DUP1 PUSH4 0x66168BD7 EQ PUSH2 0xD6 JUMPI DUP1 PUSH4 0x79FF433D EQ PUSH2 0xF6 JUMPI JUMPDEST PUSH1 0x0 DUP1 REVERT JUMPDEST CALLVALUE DUP1 ISZERO PUSH2 0x8C JUMPI PUSH1 0x0 DUP1 REVERT JUMPDEST POP PUSH2 0xA0 PUSH2 0x9B CALLDATASIZE PUSH1 0x4 PUSH2 0xD52 JUMP JUMPDEST PUSH2 0x15D JUMP JUMPDEST STOP JUMPDEST CALLVALUE DUP1 ISZERO PUSH2 0xAE JUMPI PUSH1 0x0 DUP1 REVERT JUMPDEST POP PUSH2 0xC2 PUSH2 0xBD CALLDATASIZE PUSH1 0x4 PUSH2 0xD83 JUMP JUMPDEST PUSH2 0x2EB JUMP JUMPDEST PUSH1 0x40 MLOAD SWAP1 ISZERO ISZERO DUP2 MSTORE PUSH1 0x20 ADD PUSH1 0x40 MLOAD DUP1 SWAP2 SUB SWAP1 RETURN JUMPDEST CALLVALUE DUP1 ISZERO PUSH2 0xE2 JUMPI PUSH1 0x0 DUP1 REVERT JUMPDEST POP PUSH2 0xA0 PUSH2 0xF1 CALLDATASIZE PUSH1 0x4 PUSH2 0xDA7 JUMP JUMPDEST PUSH2 0x313 JUMP JUMPDEST CALLVALUE DUP1 ISZERO PUSH2 0x102 JUMPI PUSH1 0x0 DUP1 REVERT JUMPDEST POP PUSH2 0xA0 PUSH2 0x111 CALLDATASIZE PUSH1 0x4 PUSH2 0xD83 JUMP JUMPDEST PUSH2 0x5E3 JUMP JUMPDEST CALLVALUE DUP1 ISZERO PUSH2 0x122 JUMPI PUSH1 0x0 DUP1 REVERT JUMPDEST POP PUSH2 0xA0 PUSH2 0x6AB JUMP JUMPDEST CALLVALUE DUP1 ISZERO PUSH2 0x137 JUMPI PUSH1 0x0 DUP1 REVERT JUMPDEST POP PUSH2 0xA0 PUSH2 0x80F JUMP JUMPDEST PUSH2 0xA0 PUSH2 0x9DA JUMP JUMPDEST CALLVALUE DUP1 ISZERO PUSH2 0x154 JUMPI PUSH1 0x0 DUP1 REVERT JUMPDEST POP PUSH2 0xA0 PUSH2 0xC43 JUMP JUMPDEST PUSH1 0x0 SLOAD PUSH1 0x1 PUSH1 0x1 PUSH1 0xA0 SHL SUB AND CALLER EQ PUSH2 0x190 JUMPI PUSH1 0x40 MLOAD PUSH3 0x461BCD PUSH1 0xE5 SHL DUP2 MSTORE PUSH1 0x4 ADD PUSH2 0x187 SWAP1 PUSH2 0xDD3 JUMP JUMPDEST PUSH1 0x40 MLOAD DUP1 SWAP2 SUB SWAP1 REVERT JUMPDEST PUSH1 0x0 SLOAD PUSH1 0x1 PUSH1 0xA0 SHL SWAP1 DIV PUSH1 0xFF AND ISZERO PUSH2 0x1F6 JUMPI PUSH1 0x40 MLOAD PUSH3 0x461BCD PUSH1 0xE5 SHL DUP2 MSTORE PUSH1 0x20 PUSH1 0x4 DUP3 ADD MSTORE PUSH1 0x23 PUSH1 0x24 DUP3 ADD MSTORE PUSH32 0x436F6E747261637420697320666F722073616C6520617420746865206D6F6D65 PUSH1 0x44 DUP3 ADD MSTORE PUSH3 0x373A17 PUSH1 0xE9 SHL PUSH1 0x64 DUP3 ADD MSTORE PUSH1 0x84 ADD PUSH2 0x187 JUMP JUMPDEST PUSH1 0x32 PUSH1 0x4 SLOAD LT ISZERO PUSH2 0x26F JUMPI PUSH1 0x40 MLOAD PUSH3 0x461BCD PUSH1 0xE5 SHL DUP2 MSTORE PUSH1 0x20 PUSH1 0x4 DUP3 ADD MSTORE PUSH1 0x3F PUSH1 0x24 DUP3 ADD MSTORE PUSH32 0x5468657265206D7573742062652061206D696E696D756D206F66203130302074 PUSH1 0x44 DUP3 ADD MSTORE PUSH32 0x6F6B656E7320746F206C69737420636F6E7472616374206F6E2073616C652E00 PUSH1 0x64 DUP3 ADD MSTORE PUSH1 0x84 ADD PUSH2 0x187 JUMP JUMPDEST PUSH8 0x6F05B59D3B200000 DUP2 GT ISZERO PUSH2 0x2C7 JUMPI PUSH1 0x40 MLOAD PUSH3 0x461BCD PUSH1 0xE5 SHL DUP2 MSTORE PUSH1 0x20 PUSH1 0x4 DUP3 ADD MSTORE PUSH1 0x1A PUSH1 0x24 DUP3 ADD MSTORE PUSH32 0x416D6F756E74206D757374206265203C3D20382065746865722E000000000000 PUSH1 0x44 DUP3 ADD MSTORE PUSH1 0x64 ADD PUSH2 0x187 JUMP JUMPDEST PUSH1 0x0 DUP1 SLOAD PUSH1 0xFF PUSH1 0xA0 SHL NOT DUP2 AND PUSH1 0x1 PUSH1 0xA0 SHL SWAP2 DUP3 SWAP1 DIV PUSH1 0xFF AND ISZERO SWAP1 SWAP2 MUL OR SWAP1 SSTORE PUSH1 0x3 SSTORE JUMP JUMPDEST PUSH1 0x5 SLOAD PUSH1 0x0 SWAP1 PUSH1 0x1 PUSH1 0x1 PUSH1 0xA0 SHL SUB SWAP1 DUP2 AND DUP1 ISZERO SWAP2 DUP5 AND EQ DUP2 DUP1 PUSH2 0x30B JUMPI POP DUP1 JUMPDEST SWAP5 SWAP4 POP POP POP POP JUMP JUMPDEST PUSH1 0x0 SLOAD PUSH1 0x1 PUSH1 0x1 PUSH1 0xA0 SHL SUB AND CALLER EQ PUSH2 0x33D JUMPI PUSH1 0x40 MLOAD PUSH3 0x461BCD PUSH1 0xE5 SHL DUP2 MSTORE PUSH1 0x4 ADD PUSH2 0x187 SWAP1 PUSH2 0xDD3 JUMP JUMPDEST PUSH1 0x0 SLOAD PUSH1 0x1 PUSH1 0xA0 SHL SWAP1 DIV PUSH1 0xFF AND ISZERO PUSH2 0x38D JUMPI PUSH1 0x40 MLOAD PUSH3 0x461BCD PUSH1 0xE5 SHL DUP2 MSTORE PUSH1 0x20 PUSH1 0x4 DUP3 ADD MSTORE PUSH1 0x13 PUSH1 0x24 DUP3 ADD MSTORE PUSH19 0x436F6E7472616374206973206F6E2073616C65 PUSH1 0x68 SHL PUSH1 0x44 DUP3 ADD MSTORE PUSH1 0x64 ADD PUSH2 0x187 JUMP JUMPDEST PUSH1 0x1 PUSH1 0x1 PUSH1 0xA0 SHL SUB DUP3 AND PUSH2 0x3D8 JUMPI PUSH1 0x40 MLOAD PUSH3 0x461BCD PUSH1 0xE5 SHL DUP2 MSTORE PUSH1 0x20 PUSH1 0x4 DUP3 ADD MSTORE PUSH1 0x12 PUSH1 0x24 DUP3 ADD MSTORE PUSH18 0x5A65726F20746F6B656E2061646472657373 PUSH1 0x70 SHL PUSH1 0x44 DUP3 ADD MSTORE PUSH1 0x64 ADD PUSH2 0x187 JUMP JUMPDEST PUSH2 0x3E1 DUP3 PUSH2 0x2EB JUMP JUMPDEST PUSH2 0x46A JUMPI PUSH1 0x40 MLOAD PUSH3 0x461BCD PUSH1 0xE5 SHL DUP2 MSTORE PUSH1 0x20 PUSH1 0x4 DUP3 ADD MSTORE PUSH1 0x4E PUSH1 0x24 DUP3 ADD MSTORE PUSH32 0x596F752063616E6E6F742068617665203220646966666572656E7420746F6B65 PUSH1 0x44 DUP3 ADD MSTORE PUSH32 0x6E7320696E207468697320636F6E74726163742C205769746864726177206578 PUSH1 0x64 DUP3 ADD MSTORE PUSH14 0x34B9BA34B733903A37B5B2B73997 PUSH1 0x91 SHL PUSH1 0x84 DUP3 ADD MSTORE PUSH1 0xA4 ADD PUSH2 0x187 JUMP JUMPDEST PUSH1 0x5 DUP1 SLOAD PUSH1 0x1 PUSH1 0x1 PUSH1 0xA0 SHL SUB NOT AND PUSH1 0x1 PUSH1 0x1 PUSH1 0xA0 SHL SUB DUP5 AND SWAP1 DUP2 OR SWAP1 SWAP2 SSTORE PUSH1 0x40 MLOAD PUSH4 0x6EB1769F PUSH1 0xE1 SHL DUP2 MSTORE CALLER PUSH1 0x4 DUP3 ADD MSTORE ADDRESS PUSH1 0x24 DUP3 ADD MSTORE DUP3 SWAP2 SWAP1 PUSH4 0xDD62ED3E SWAP1 PUSH1 0x44 ADD PUSH1 0x20 PUSH1 0x40 MLOAD DUP1 DUP4 SUB DUP2 DUP7 GAS STATICCALL ISZERO DUP1 ISZERO PUSH2 0x4CA JUMPI RETURNDATASIZE PUSH1 0x0 DUP1 RETURNDATACOPY RETURNDATASIZE PUSH1 0x0 REVERT JUMPDEST POP POP POP POP PUSH1 0x40 MLOAD RETURNDATASIZE PUSH1 0x1F NOT PUSH1 0x1F DUP3 ADD AND DUP3 ADD DUP1 PUSH1 0x40 MSTORE POP DUP2 ADD SWAP1 PUSH2 0x4EE SWAP2 SWAP1 PUSH2 0xDF3 JUMP JUMPDEST LT ISZERO PUSH2 0x54C JUMPI PUSH1 0x40 MLOAD PUSH3 0x461BCD PUSH1 0xE5 SHL DUP2 MSTORE PUSH1 0x20 PUSH1 0x4 DUP3 ADD MSTORE PUSH1 0x27 PUSH1 0x24 DUP3 ADD MSTORE PUSH32 0x596F7520646F6E2774206861766520656E6F75676820616C6C6F77616E636520 PUSH1 0x44 DUP3 ADD MSTORE PUSH7 0x3A37B5B2B73997 PUSH1 0xC9 SHL PUSH1 0x64 DUP3 ADD MSTORE PUSH1 0x84 ADD PUSH2 0x187 JUMP JUMPDEST PUSH1 0x5 SLOAD PUSH1 0x40 MLOAD PUSH4 0x23B872DD PUSH1 0xE0 SHL DUP2 MSTORE CALLER PUSH1 0x4 DUP3 ADD MSTORE ADDRESS PUSH1 0x24 DUP3 ADD MSTORE PUSH1 0x44 DUP2 ADD DUP4 SWAP1 MSTORE PUSH1 0x1 PUSH1 0x1 PUSH1 0xA0 SHL SUB SWAP1 SWAP2 AND SWAP1 PUSH4 0x23B872DD SWAP1 PUSH1 0x64 ADD PUSH1 0x20 PUSH1 0x40 MLOAD DUP1 DUP4 SUB DUP2 PUSH1 0x0 DUP8 GAS CALL ISZERO DUP1 ISZERO PUSH2 0x5A3 JUMPI RETURNDATASIZE PUSH1 0x0 DUP1 RETURNDATACOPY RETURNDATASIZE PUSH1 0x0 REVERT JUMPDEST POP POP POP POP PUSH1 0x40 MLOAD RETURNDATASIZE PUSH1 0x1F NOT PUSH1 0x1F DUP3 ADD AND DUP3 ADD DUP1 PUSH1 0x40 MSTORE POP DUP2 ADD SWAP1 PUSH2 0x5C7 SWAP2 SWAP1 PUSH2 0xE0C JUMP JUMPDEST POP DUP1 PUSH1 0x4 PUSH1 0x0 DUP3 DUP3 SLOAD PUSH2 0x5DA SWAP2 SWAP1 PUSH2 0xE2E JUMP JUMPDEST SWAP1 SWAP2 SSTORE POP POP POP POP JUMP JUMPDEST PUSH1 0x0 SLOAD PUSH1 0x1 PUSH1 0x1 PUSH1 0xA0 SHL SUB AND CALLER EQ PUSH2 0x60D JUMPI PUSH1 0x40 MLOAD PUSH3 0x461BCD PUSH1 0xE5 SHL DUP2 MSTORE PUSH1 0x4 ADD PUSH2 0x187 SWAP1 PUSH2 0xDD3 JUMP JUMPDEST PUSH1 0x1 PUSH1 0x1 PUSH1 0xA0 SHL SUB DUP2 AND PUSH2 0x64F JUMPI PUSH1 0x40 MLOAD PUSH3 0x461BCD PUSH1 0xE5 SHL DUP2 MSTORE PUSH1 0x20 PUSH1 0x4 DUP3 ADD MSTORE PUSH1 0x9 PUSH1 0x24 DUP3 ADD MSTORE PUSH9 0x302041646472657373 PUSH1 0xB8 SHL PUSH1 0x44 DUP3 ADD MSTORE PUSH1 0x64 ADD PUSH2 0x187 JUMP JUMPDEST PUSH1 0x0 DUP1 SLOAD PUSH1 0x1 PUSH1 0x1 PUSH1 0xA0 SHL SUB NOT AND PUSH1 0x1 PUSH1 0x1 PUSH1 0xA0 SHL SUB DUP4 AND SWAP1 DUP2 OR SWAP1 SWAP2 SSTORE PUSH1 0x40 DUP1 MLOAD CALLER DUP2 MSTORE PUSH1 0x20 DUP2 ADD SWAP3 SWAP1 SWAP3 MSTORE PUSH32 0xF25E5C775ABC4FDE8672E6C495F9A9F0FE279BC7640D95896B49DAD0FB4E6D68 SWAP2 ADD JUMPDEST PUSH1 0x40 MLOAD DUP1 SWAP2 SUB SWAP1 LOG1 POP JUMP JUMPDEST PUSH1 0x0 SLOAD PUSH1 0x1 PUSH1 0x1 PUSH1 0xA0 SHL SUB AND CALLER EQ PUSH2 0x6D5 JUMPI PUSH1 0x40 MLOAD PUSH3 0x461BCD PUSH1 0xE5 SHL DUP2 MSTORE PUSH1 0x4 ADD PUSH2 0x187 SWAP1 PUSH2 0xDD3 JUMP JUMPDEST PUSH1 0x0 SLOAD PUSH1 0x1 PUSH1 0xA0 SHL SWAP1 DIV PUSH1 0xFF AND ISZERO PUSH2 0x726 JUMPI PUSH1 0x40 MLOAD PUSH3 0x461BCD PUSH1 0xE5 SHL DUP2 MSTORE PUSH1 0x20 PUSH1 0x4 DUP3 ADD MSTORE PUSH1 0x14 PUSH1 0x24 DUP3 ADD MSTORE PUSH20 0x21B7B73A3930B1BA1034B99037B71039B0B63297 PUSH1 0x61 SHL PUSH1 0x44 DUP3 ADD MSTORE PUSH1 0x64 ADD PUSH2 0x187 JUMP JUMPDEST PUSH1 0x0 PUSH1 0x4 SLOAD GT PUSH2 0x783 JUMPI PUSH1 0x40 MLOAD PUSH3 0x461BCD PUSH1 0xE5 SHL DUP2 MSTORE PUSH1 0x20 PUSH1 0x4 DUP3 ADD MSTORE PUSH1 0x22 PUSH1 0x24 DUP3 ADD MSTORE PUSH32 0x5468697320636F6E747261637420686173206E6F2073746F72656420746F6B65 PUSH1 0x44 DUP3 ADD MSTORE PUSH2 0x6E73 PUSH1 0xF0 SHL PUSH1 0x64 DUP3 ADD MSTORE PUSH1 0x84 ADD PUSH2 0x187 JUMP JUMPDEST PUSH1 0x5 SLOAD PUSH1 0x4 DUP1 SLOAD PUSH1 0x40 MLOAD PUSH4 0xA9059CBB PUSH1 0xE0 SHL DUP2 MSTORE CALLER SWAP3 DUP2 ADD SWAP3 SWAP1 SWAP3 MSTORE PUSH1 0x24 DUP3 ADD MSTORE PUSH1 0x1 PUSH1 0x1 PUSH1 0xA0 SHL SUB SWAP1 SWAP2 AND SWAP1 PUSH4 0xA9059CBB SWAP1 PUSH1 0x44 ADD PUSH1 0x20 PUSH1 0x40 MLOAD DUP1 DUP4 SUB DUP2 PUSH1 0x0 DUP8 GAS CALL ISZERO DUP1 ISZERO PUSH2 0x7D8 JUMPI RETURNDATASIZE PUSH1 0x0 DUP1 RETURNDATACOPY RETURNDATASIZE PUSH1 0x0 REVERT JUMPDEST POP POP POP POP PUSH1 0x40 MLOAD RETURNDATASIZE PUSH1 0x1F NOT PUSH1 0x1F DUP3 ADD AND DUP3 ADD DUP1 PUSH1 0x40 MSTORE POP DUP2 ADD SWAP1 PUSH2 0x7FC SWAP2 SWAP1 PUSH2 0xE0C JUMP JUMPDEST POP PUSH1 0x5 DUP1 SLOAD PUSH1 0x1 PUSH1 0x1 PUSH1 0xA0 SHL SUB NOT AND SWAP1 SSTORE JUMP JUMPDEST PUSH1 0x0 SLOAD PUSH1 0x1 PUSH1 0x1 PUSH1 0xA0 SHL SUB AND CALLER EQ PUSH2 0x839 JUMPI PUSH1 0x40 MLOAD PUSH3 0x461BCD PUSH1 0xE5 SHL DUP2 MSTORE PUSH1 0x4 ADD PUSH2 0x187 SWAP1 PUSH2 0xDD3 JUMP JUMPDEST PUSH1 0x0 SLOAD PUSH1 0x1 PUSH1 0xA0 SHL SWAP1 DIV PUSH1 0xFF AND PUSH2 0x880 JUMPI PUSH1 0x40 MLOAD PUSH3 0x461BCD PUSH1 0xE5 SHL DUP2 MSTORE PUSH1 0x20 PUSH1 0x4 DUP3 ADD MSTORE PUSH1 0xB PUSH1 0x24 DUP3 ADD MSTORE PUSH11 0x4E6F74206F6E2073616C65 PUSH1 0xA8 SHL PUSH1 0x44 DUP3 ADD MSTORE PUSH1 0x64 ADD PUSH2 0x187 JUMP JUMPDEST PUSH1 0x0 PUSH1 0x1 SLOAD GT PUSH2 0x8C1 JUMPI PUSH1 0x40 MLOAD PUSH3 0x461BCD PUSH1 0xE5 SHL DUP2 MSTORE PUSH1 0x20 PUSH1 0x4 DUP3 ADD MSTORE PUSH1 0xC PUSH1 0x24 DUP3 ADD MSTORE PUSH12 0x2737903134B239903CB2BA17 PUSH1 0xA1 SHL PUSH1 0x44 DUP3 ADD MSTORE PUSH1 0x64 ADD PUSH2 0x187 JUMP JUMPDEST PUSH1 0x2 SLOAD PUSH1 0x1 PUSH1 0x1 PUSH1 0xA0 SHL SUB AND PUSH2 0x90A JUMPI PUSH1 0x40 MLOAD PUSH3 0x461BCD PUSH1 0xE5 SHL DUP2 MSTORE PUSH1 0x20 PUSH1 0x4 DUP3 ADD MSTORE PUSH1 0xE PUSH1 0x24 DUP3 ADD MSTORE PUSH14 0x2737903134B23232B9103CB2BA17 PUSH1 0x91 SHL PUSH1 0x44 DUP3 ADD MSTORE PUSH1 0x64 ADD PUSH2 0x187 JUMP JUMPDEST PUSH1 0x0 DUP1 SLOAD PUSH1 0x1 SLOAD PUSH1 0x40 MLOAD PUSH1 0x1 PUSH1 0x1 PUSH1 0xA0 SHL SUB SWAP1 SWAP3 AND SWAP3 DUP4 SWAP3 DUP3 ISZERO PUSH2 0x8FC MUL SWAP3 SWAP2 DUP2 DUP2 DUP2 DUP6 DUP9 DUP9 CALL SWAP4 POP POP POP POP ISZERO DUP1 ISZERO PUSH2 0x947 JUMPI RETURNDATASIZE PUSH1 0x0 DUP1 RETURNDATACOPY RETURNDATASIZE PUSH1 0x0 REVERT JUMPDEST POP PUSH1 0x2 SLOAD PUSH2 0x95D SWAP1 PUSH1 0x1 PUSH1 0x1 PUSH1 0xA0 SHL SUB AND PUSH2 0x5E3 JUMP JUMPDEST PUSH1 0x2 DUP1 SLOAD PUSH1 0x1 PUSH1 0x1 PUSH1 0xA0 SHL SUB NOT AND SWAP1 SSTORE PUSH1 0x0 PUSH1 0x1 DUP2 SWAP1 SSTORE DUP1 SLOAD PUSH1 0xFF PUSH1 0xA0 SHL NOT DUP2 AND PUSH1 0x1 PUSH1 0xA0 SHL DUP1 DUP4 DIV PUSH1 0xFF AND ISZERO MUL SWAP1 DUP2 OR SWAP1 SWAP3 SSTORE PUSH1 0x40 DUP1 MLOAD PUSH1 0x1 PUSH1 0x1 PUSH1 0xA0 SHL SUB DUP1 DUP7 AND DUP3 MSTORE SWAP3 DUP4 AND SWAP3 SWAP1 SWAP4 AND SWAP2 SWAP1 SWAP2 OR PUSH1 0x20 DUP4 ADD MSTORE PUSH32 0xF25E5C775ABC4FDE8672E6C495F9A9F0FE279BC7640D95896B49DAD0FB4E6D68 SWAP2 ADD PUSH2 0x6A0 JUMP JUMPDEST PUSH1 0x0 SLOAD PUSH1 0x1 PUSH1 0xA0 SHL SWAP1 DIV PUSH1 0xFF AND PUSH2 0xA43 JUMPI PUSH1 0x40 MLOAD PUSH3 0x461BCD PUSH1 0xE5 SHL DUP2 MSTORE PUSH1 0x20 PUSH1 0x4 DUP3 ADD MSTORE PUSH1 0x27 PUSH1 0x24 DUP3 ADD MSTORE PUSH32 0x436F6E7472616374206973206E6F7420666F722073616C652061742074686520 PUSH1 0x44 DUP3 ADD MSTORE PUSH7 0x36B7B6B2B73A17 PUSH1 0xC9 SHL PUSH1 0x64 DUP3 ADD MSTORE PUSH1 0x84 ADD PUSH2 0x187 JUMP JUMPDEST CALLER PUSH2 0xA86 JUMPI PUSH1 0x40 MLOAD PUSH3 0x461BCD PUSH1 0xE5 SHL DUP2 MSTORE PUSH1 0x20 PUSH1 0x4 DUP3 ADD MSTORE PUSH1 0x13 PUSH1 0x24 DUP3 ADD MSTORE PUSH19 0x2A3C3710333937B690181030B2323932B9B997 PUSH1 0x69 SHL PUSH1 0x44 DUP3 ADD MSTORE PUSH1 0x64 ADD PUSH2 0x187 JUMP JUMPDEST PUSH1 0x0 SLOAD PUSH1 0x1 PUSH1 0x1 PUSH1 0xA0 SHL SUB AND CALLER EQ ISZERO PUSH2 0xAE1 JUMPI PUSH1 0x40 MLOAD PUSH3 0x461BCD PUSH1 0xE5 SHL DUP2 MSTORE PUSH1 0x20 PUSH1 0x4 DUP3 ADD MSTORE PUSH1 0x1D PUSH1 0x24 DUP3 ADD MSTORE PUSH32 0x596F752063616E6E6F742062696420796F757220636F6E74726163742E000000 PUSH1 0x44 DUP3 ADD MSTORE PUSH1 0x64 ADD PUSH2 0x187 JUMP JUMPDEST PUSH1 0x0 CALLVALUE GT PUSH2 0xB1E JUMPI PUSH1 0x40 MLOAD PUSH3 0x461BCD PUSH1 0xE5 SHL DUP2 MSTORE PUSH1 0x20 PUSH1 0x4 DUP3 ADD MSTORE PUSH1 0xA PUSH1 0x24 DUP3 ADD MSTORE PUSH10 0x5072696365203C3D203 PUSH1 0xB4 SHL PUSH1 0x44 DUP3 ADD MSTORE PUSH1 0x64 ADD PUSH2 0x187 JUMP JUMPDEST PUSH1 0x3 SLOAD CALLVALUE LT ISZERO PUSH2 0xB68 JUMPI PUSH1 0x40 MLOAD PUSH3 0x461BCD PUSH1 0xE5 SHL DUP2 MSTORE PUSH1 0x20 PUSH1 0x4 DUP3 ADD MSTORE PUSH1 0x15 PUSH1 0x24 DUP3 ADD MSTORE PUSH21 0x2134B2101E1021B7B73A3930B1BA10383934B1B297 PUSH1 0x59 SHL PUSH1 0x44 DUP3 ADD MSTORE PUSH1 0x64 ADD PUSH2 0x187 JUMP JUMPDEST PUSH1 0x1 SLOAD CALLVALUE GT PUSH2 0xBCC JUMPI PUSH1 0x40 MLOAD PUSH3 0x461BCD PUSH1 0xE5 SHL DUP2 MSTORE PUSH1 0x20 PUSH1 0x4 DUP3 ADD MSTORE PUSH1 0x2A PUSH1 0x24 DUP3 ADD MSTORE PUSH32 0x596F7572732069736E27742074686520686967686573742C2069742069732075 PUSH1 0x44 DUP3 ADD MSTORE PUSH10 0x3730B1B1B2B83A32B217 PUSH1 0xB1 SHL PUSH1 0x64 DUP3 ADD MSTORE PUSH1 0x84 ADD PUSH2 0x187 JUMP JUMPDEST PUSH1 0x0 PUSH1 0x1 SLOAD GT DUP1 ISZERO PUSH2 0xBE8 JUMPI POP PUSH1 0x2 SLOAD PUSH1 0x1 PUSH1 0x1 PUSH1 0xA0 SHL SUB AND ISZERO ISZERO JUMPDEST ISZERO PUSH2 0xC2B JUMPI PUSH1 0x2 SLOAD PUSH1 0x1 SLOAD PUSH1 0x40 MLOAD PUSH1 0x1 PUSH1 0x1 PUSH1 0xA0 SHL SUB SWAP1 SWAP3 AND SWAP2 DUP2 ISZERO PUSH2 0x8FC MUL SWAP2 SWAP1 PUSH1 0x0 DUP2 DUP2 DUP2 DUP6 DUP9 DUP9 CALL SWAP4 POP POP POP POP ISZERO DUP1 ISZERO PUSH2 0xC29 JUMPI RETURNDATASIZE PUSH1 0x0 DUP1 RETURNDATACOPY RETURNDATASIZE PUSH1 0x0 REVERT JUMPDEST POP JUMPDEST PUSH1 0x2 DUP1 SLOAD CALLVALUE PUSH1 0x1 SSTORE PUSH1 0x1 PUSH1 0x1 PUSH1 0xA0 SHL SUB NOT AND CALLER OR SWAP1 SSTORE JUMP JUMPDEST PUSH1 0x0 SLOAD PUSH1 0x1 PUSH1 0x1 PUSH1 0xA0 SHL SUB AND CALLER EQ PUSH2 0xC6D JUMPI PUSH1 0x40 MLOAD PUSH3 0x461BCD PUSH1 0xE5 SHL DUP2 MSTORE PUSH1 0x4 ADD PUSH2 0x187 SWAP1 PUSH2 0xDD3 JUMP JUMPDEST PUSH1 0x0 SLOAD PUSH1 0x1 PUSH1 0xA0 SHL SWAP1 DIV PUSH1 0xFF AND PUSH2 0xCBE JUMPI PUSH1 0x40 MLOAD PUSH3 0x461BCD PUSH1 0xE5 SHL DUP2 MSTORE PUSH1 0x20 PUSH1 0x4 DUP3 ADD MSTORE PUSH1 0x15 PUSH1 0x24 DUP3 ADD MSTORE PUSH21 0x21B7B73A3930B1BA103737BA1037B71039B0B63297 PUSH1 0x59 SHL PUSH1 0x44 DUP3 ADD MSTORE PUSH1 0x64 ADD PUSH2 0x187 JUMP JUMPDEST PUSH1 0x0 DUP1 SLOAD PUSH1 0xFF PUSH1 0xA0 SHL NOT DUP2 AND PUSH1 0x1 PUSH1 0xA0 SHL SWAP2 DUP3 SWAP1 DIV PUSH1 0xFF AND ISZERO SWAP1 SWAP2 MUL OR SWAP1 SSTORE PUSH1 0x1 SLOAD ISZERO DUP1 ISZERO SWAP1 PUSH2 0xCF8 JUMPI POP PUSH1 0x2 SLOAD PUSH1 0x1 PUSH1 0x1 PUSH1 0xA0 SHL SUB AND ISZERO ISZERO JUMPDEST ISZERO PUSH2 0xD3B JUMPI PUSH1 0x2 SLOAD PUSH1 0x1 SLOAD PUSH1 0x40 MLOAD PUSH1 0x1 PUSH1 0x1 PUSH1 0xA0 SHL SUB SWAP1 SWAP3 AND SWAP2 DUP2 ISZERO PUSH2 0x8FC MUL SWAP2 SWAP1 PUSH1 0x0 DUP2 DUP2 DUP2 DUP6 DUP9 DUP9 CALL SWAP4 POP POP POP POP ISZERO DUP1 ISZERO PUSH2 0xD39 JUMPI RETURNDATASIZE PUSH1 0x0 DUP1 RETURNDATACOPY RETURNDATASIZE PUSH1 0x0 REVERT JUMPDEST POP JUMPDEST PUSH1 0x2 DUP1 SLOAD PUSH1 0x1 PUSH1 0x1 PUSH1 0xA0 SHL SUB NOT AND SWAP1 SSTORE PUSH1 0x0 PUSH1 0x1 SSTORE JUMP JUMPDEST PUSH1 0x0 PUSH1 0x20 DUP3 DUP5 SUB SLT ISZERO PUSH2 0xD64 JUMPI PUSH1 0x0 DUP1 REVERT JUMPDEST POP CALLDATALOAD SWAP2 SWAP1 POP JUMP JUMPDEST PUSH1 0x1 PUSH1 0x1 PUSH1 0xA0 SHL SUB DUP2 AND DUP2 EQ PUSH2 0xD80 JUMPI PUSH1 0x0 DUP1 REVERT JUMPDEST POP JUMP JUMPDEST PUSH1 0x0 PUSH1 0x20 DUP3 DUP5 SUB SLT ISZERO PUSH2 0xD95 JUMPI PUSH1 0x0 DUP1 REVERT JUMPDEST DUP2 CALLDATALOAD PUSH2 0xDA0 DUP2 PUSH2 0xD6B JUMP JUMPDEST SWAP4 SWAP3 POP POP POP JUMP JUMPDEST PUSH1 0x0 DUP1 PUSH1 0x40 DUP4 DUP6 SUB SLT ISZERO PUSH2 0xDBA JUMPI PUSH1 0x0 DUP1 REVERT JUMPDEST DUP3 CALLDATALOAD PUSH2 0xDC5 DUP2 PUSH2 0xD6B JUMP JUMPDEST SWAP5 PUSH1 0x20 SWAP4 SWAP1 SWAP4 ADD CALLDATALOAD SWAP4 POP POP POP JUMP JUMPDEST PUSH1 0x20 DUP1 DUP3 MSTORE PUSH1 0x6 SWAP1 DUP3 ADD MSTORE PUSH6 0x10A7BBB732B9 PUSH1 0xD1 SHL PUSH1 0x40 DUP3 ADD MSTORE PUSH1 0x60 ADD SWAP1 JUMP JUMPDEST PUSH1 0x0 PUSH1 0x20 DUP3 DUP5 SUB SLT ISZERO PUSH2 0xE05 JUMPI PUSH1 0x0 DUP1 REVERT JUMPDEST POP MLOAD SWAP2 SWAP1 POP JUMP JUMPDEST PUSH1 0x0 PUSH1 0x20 DUP3 DUP5 SUB SLT ISZERO PUSH2 0xE1E JUMPI PUSH1 0x0 DUP1 REVERT JUMPDEST DUP2 MLOAD DUP1 ISZERO ISZERO DUP2 EQ PUSH2 0xDA0 JUMPI PUSH1 0x0 DUP1 REVERT JUMPDEST PUSH1 0x0 DUP3 NOT DUP3 GT ISZERO PUSH2 0xE4F JUMPI PUSH4 0x4E487B71 PUSH1 0xE0 SHL PUSH1 0x0 MSTORE PUSH1 0x11 PUSH1 0x4 MSTORE PUSH1 0x24 PUSH1 0x0 REVERT JUMPDEST POP ADD SWAP1 JUMP INVALID LOG2 PUSH5 0x6970667358 0x22 SLT KECCAK256 GASPRICE 0x49 ISZERO 0xE8 0xA7 CALLVALUE DUP10 0x4A 0xE5 0xD8 0xD4 0xAF DIFFICULTY MLOAD SWAP2 0x27 0xEA 0x4F PUSH2 0xC29F LT 0xED LOG4 NUMBER DUP4 0xDE 0xE5 SMOD 0xE6 0xEE EXTCODESIZE PUSH5 0x736F6C6343 STOP ADDMOD 0xC STOP CALLER ","sha1":"8987a4040b1fc595e16eaa6de6b66328c8e03b73","source":"// SPDX-License-Identifier: MIT\npragma solidity >=0.6.0;\nimport \"OpenZeppelin/openzeppelin-contracts@4.6.0/contracts/token/ERC20/IERC20.sol\";\nimport \"./Deps/Owned.sol\";\n\n\n/*\n* @title: Sellable smart contract, funded with tokens.\n* @author: Anthony (fps) https://github.com/fps8k .\n* @dev: \n* This smart contract involves an contract_owner depositing tokens into the smart contract, then he can list the smart contract for sale.\n* The buyer then purchases the smart contract and can take the tokens in the smart contract.\n*\n* O W N   C O N T R A C T .\n* D E P O S I T   T O K E N S   I N   T H E   C O N T R A C T .\n* L I S T   T H E   C O N T R A C T   F O R   S A L E.\n* B U Y   C O N T R A C T   A N D   B E C O M E   O W N E R.\n* W I T H D R A W   T O K E N S.\n*/\n\ncontract Sellable is Owned\n{\n    // isOwner from Owned.\n\n\n    // Toggle for the sale and non-sale of the contract.\n\n    bool private on_sale = false;\n\n\n    // The highest bid, highest bidder.\n\n    uint256 private highest_bid;\n    address private highest_bidder;\n\n    uint256 private contract_price;\n    uint256 private stored_contract_tokens;\n\n    IERC20 token;\n\n\n\n\n    /*\n    * @dev:\n    *\n    * Checks if the token to be stored in the contract passes 2 tests:\n    *\n    * -> The current token must be none.\n    * -> The new token to be added must be the same with the existing token.\n    *\n    * Returns true if one of the conditions is met.\n    * \n    *\n    * @param:\n    *\n    * IERC20 __token.\n    * \n    *\n    * @return:\n    * \n    * bool.\n    */\n\n    function canDeposit(IERC20 __token) public view returns(bool)\n    {\n        bool is_empty = (address(token) == address(0));\n        bool is_same_token = (token == IERC20(__token));\n        \n        return (is_empty || is_same_token);\n    }\n\n\n\n\n    /*\n    * @dev:\n    *\n    * Allows the `contract_owner` of the contract to deposit some of his tokens into the contract.\n    * Only the `contract_owner` of the contract can deposit tokens.\n    *\n    * The `contract_owner` must have some allowance given to himself on the tokens he wants to deposit.\n    * The contract must not be on sale for this function to be called.\n    *\n    * There cannot be two different tokens in the account.\n    * \n    *\n    * @param:\n    *\n    * address __token, uint256 _amount.\n    */\n\n    function depositTokens(address _token, uint256 _amount) public isOwner\n    {\n        require(!on_sale, \"Contract is on sale\");\n        require(_token != address(0), \"Zero token address\");\n        require(canDeposit(IERC20(_token)), \"You cannot have 2 different tokens in this contract, Withdraw existing tokens.\");\n\n        token = IERC20(_token);\n\n\n        // Token holder will give contract some allowance.\n\n        require(token.allowance(msg.sender, address(this)) >= _amount, \"You don't have enough allowance tokens.\");\n        token.transferFrom(msg.sender, address(this), _amount);\n\n        stored_contract_tokens += _amount;\n    }\n\n\n\n\n    /*\n    * @dev:\n    *\n    * The contract must not be on sale for this function to be called.\n    * This allows the contract_owner to place a price on his contract.\n    * The maximum allowed for contract sale is 8 ether.\n    * Turns on `on_sale` to true.\n    *\n    * The contract must have a minimum of tokens before it can be listed for sale, say 100.\n    * \n    *\n    * @param:\n    *\n    * uint256 _amount.\n    */\n\n    function placeOnSaleInGwei(uint256 _amount) public isOwner\n    {\n        require(!on_sale, \"Contract is for sale at the moment.\");                           // Req on_sale == False;\n        require(stored_contract_tokens >= 50, \"There must be a minimum of 100 tokens to list contract on sale.\");\n        require(_amount <= 8 ether, \"Amount must be <= 8 ether.\");\n        on_sale = !on_sale;\n        contract_price = _amount;\n    }\n\n\n\n\n    /*\n    * @dev:\n    * \n    * Allows anyone to bid as long as their bid >= contract price and > highest bid standing set in the placeOnSaleInGwei.\n    * The contract must be on sale.\n    * Bidder cannnot be a 0 address.\n    * Msg.value must be >= contract price and > highest_bid.\n    *\n    * This pays back the amount the old highest bidder had.\n    * New highest bidder and new highest bid replaces the old spots.\n    */\n\n    function bidContract() public payable\n    {\n        require(on_sale, \"Contract is not for sale at the moment.\");                        // Req on_sale == True;\n        require(msg.sender != address(0), \"Txn from 0 address.\");\n        require(msg.sender != contract_owner, \"You cannot bid your contract.\");\n        require(msg.value > 0, \"Price <= 0\");\n        require(msg.value >= contract_price, \"Bid < Contract price.\");\n        require(msg.value > highest_bid, \"Yours isn't the highest, it is unaccepted.\");\n\n\n        if (highest_bid > 0 && highest_bidder != address(0))\n            payable(highest_bidder).transfer(highest_bid);\n\n            delete highest_bidder;\n            delete highest_bid;\n\n\n        highest_bid = msg.value;\n        highest_bidder = msg.sender;\n    }\n\n\n\n\n    /*\n    * @dev:\n    *\n    * Sells the contract to the highest bidder.\n    * Makes the highest bidder the contract_owner.\n    * Sets the on sale to false.\n    */\n\n    function sellContract() public isOwner\n    {\n        require(on_sale, \"Not on sale\");                                            // Req on_sale == True;\n        require(highest_bid > 0, \"No bids yet.\");\n        require(highest_bidder != address(0), \"No bidder yet.\");\n\n        address old_contract_owner = contract_owner;\n\n        payable(contract_owner).transfer(highest_bid);\n        moveOwnership(highest_bidder);\n\n        delete highest_bidder;\n        delete highest_bid;\n        \n        on_sale = !on_sale;                                                         // on_sale == False;\n\n        emit MoveOwnership(old_contract_owner, contract_owner);\n    }\n\n\n\n\n    /*\n    * @dev:\n    *\n    * Cancels the sale and repays the current highest bidder.\n    */\n\n    function revokeSale() public isOwner\n    {\n        require(on_sale, \"Contract not on sale.\");\n        on_sale = !on_sale;\n\n        if (highest_bid > 0 && highest_bidder != address(0))\n            payable(highest_bidder).transfer(highest_bid);\n\n        delete highest_bidder;\n        delete highest_bid;\n    }\n\n\n\n\n    /*\n    * @dev:\n    *\n    * Allows the token owner to withdraw the tokens he has put in the contract.\n    * OR\n    * Allows the token owner to withdraw the tokens stored in the contrat after purchase.\n    */\n\n    function withdrawTokens() public isOwner\n    {\n        require(!on_sale, \"Contract is on sale.\");\n        require(stored_contract_tokens > 0, \"This contract has no stored tokens\");\n\n        token.transfer(msg.sender, stored_contract_tokens);\n\n        delete token;\n    }\n}","sourcePath":"contracts/Covered.sol","type":"contract","deployment":{"address":"0xCF7965B83aC0228bA4c233EfAA559dcAadd02e31","chainid":"4","blockHeight":10634694}}