{
  "abi": [
    {
      "inputs": [],
      "stateMutability": "nonpayable",
      "type": "constructor"
    },
    {
      "anonymous": false,
      "inputs": [
        {
          "indexed": false,
          "internalType": "address",
          "name": "",
          "type": "address"
        },
        {
          "indexed": false,
          "internalType": "address",
          "name": "",
          "type": "address"
        }
      ],
      "name": "MoveOwnership",
      "type": "event"
    },
    {
      "inputs": [
        {
          "internalType": "address",
          "name": "new_contract_owner",
          "type": "address"
        }
      ],
      "name": "moveOwnership",
      "outputs": [],
      "stateMutability": "nonpayable",
      "type": "function"
    }
  ],
  "bytecode": "608060405234801561001057600080fd5b50600080546001600160a01b0319163390811782556040805192835260208301919091527ff25e5c775abc4fde8672e6c495f9a9f0fe279bc7640d95896b49dad0fb4e6d68910160405180910390a16101908061006e6000396000f3fe608060405234801561001057600080fd5b506004361061002b5760003560e01c806379ff433d14610030575b600080fd5b61004361003e36600461012a565b610045565b005b6000546001600160a01b0316331461008d5760405162461bcd60e51b815260206004820152600660248201526510a7bbb732b960d11b60448201526064015b60405180910390fd5b6001600160a01b0381166100cf5760405162461bcd60e51b815260206004820152600960248201526830204164647265737360b81b6044820152606401610084565b600080546001600160a01b0319166001600160a01b0383169081179091556040805133815260208101929092527ff25e5c775abc4fde8672e6c495f9a9f0fe279bc7640d95896b49dad0fb4e6d68910160405180910390a150565b60006020828403121561013c57600080fd5b81356001600160a01b038116811461015357600080fd5b939250505056fea2646970667358221220b80bb5914d72ed47333125c29d23f60b0236f5ab6c751b681dc7a2fd123c5ebd64736f6c634300080c0033",
  "bytecodeSha1": "f7d8273b4bc94e9da6058b3adaf8b6b41a06bf67",
  "compiler": {
    "evm_version": "istanbul",
    "optimizer": {
      "enabled": true,
      "runs": 200
    },
    "version": "0.8.12+commit.f00d7308"
  },
  "contractName": "Owned",
  "language": "Solidity",
  "natspec": {
    "kind": "dev",
    "methods": {},
    "version": 1
  },
  "opcodes": "PUSH1 0x80 PUSH1 0x40 MSTORE CALLVALUE DUP1 ISZERO PUSH2 0x10 JUMPI PUSH1 0x0 DUP1 REVERT JUMPDEST POP PUSH1 0x4 CALLDATASIZE LT PUSH2 0x2B JUMPI PUSH1 0x0 CALLDATALOAD PUSH1 0xE0 SHR DUP1 PUSH4 0x79FF433D EQ PUSH2 0x30 JUMPI JUMPDEST PUSH1 0x0 DUP1 REVERT JUMPDEST PUSH2 0x43 PUSH2 0x3E CALLDATASIZE PUSH1 0x4 PUSH2 0x12A JUMP JUMPDEST PUSH2 0x45 JUMP JUMPDEST STOP JUMPDEST PUSH1 0x0 SLOAD PUSH1 0x1 PUSH1 0x1 PUSH1 0xA0 SHL SUB AND CALLER EQ PUSH2 0x8D JUMPI PUSH1 0x40 MLOAD PUSH3 0x461BCD PUSH1 0xE5 SHL DUP2 MSTORE PUSH1 0x20 PUSH1 0x4 DUP3 ADD MSTORE PUSH1 0x6 PUSH1 0x24 DUP3 ADD MSTORE PUSH6 0x10A7BBB732B9 PUSH1 0xD1 SHL PUSH1 0x44 DUP3 ADD MSTORE PUSH1 0x64 ADD JUMPDEST PUSH1 0x40 MLOAD DUP1 SWAP2 SUB SWAP1 REVERT JUMPDEST PUSH1 0x1 PUSH1 0x1 PUSH1 0xA0 SHL SUB DUP2 AND PUSH2 0xCF JUMPI PUSH1 0x40 MLOAD PUSH3 0x461BCD PUSH1 0xE5 SHL DUP2 MSTORE PUSH1 0x20 PUSH1 0x4 DUP3 ADD MSTORE PUSH1 0x9 PUSH1 0x24 DUP3 ADD MSTORE PUSH9 0x302041646472657373 PUSH1 0xB8 SHL PUSH1 0x44 DUP3 ADD MSTORE PUSH1 0x64 ADD PUSH2 0x84 JUMP JUMPDEST PUSH1 0x0 DUP1 SLOAD PUSH1 0x1 PUSH1 0x1 PUSH1 0xA0 SHL SUB NOT AND PUSH1 0x1 PUSH1 0x1 PUSH1 0xA0 SHL SUB DUP4 AND SWAP1 DUP2 OR SWAP1 SWAP2 SSTORE PUSH1 0x40 DUP1 MLOAD CALLER DUP2 MSTORE PUSH1 0x20 DUP2 ADD SWAP3 SWAP1 SWAP3 MSTORE PUSH32 0xF25E5C775ABC4FDE8672E6C495F9A9F0FE279BC7640D95896B49DAD0FB4E6D68 SWAP2 ADD PUSH1 0x40 MLOAD DUP1 SWAP2 SUB SWAP1 LOG1 POP JUMP JUMPDEST PUSH1 0x0 PUSH1 0x20 DUP3 DUP5 SUB SLT ISZERO PUSH2 0x13C JUMPI PUSH1 0x0 DUP1 REVERT JUMPDEST DUP2 CALLDATALOAD PUSH1 0x1 PUSH1 0x1 PUSH1 0xA0 SHL SUB DUP2 AND DUP2 EQ PUSH2 0x153 JUMPI PUSH1 0x0 DUP1 REVERT JUMPDEST SWAP4 SWAP3 POP POP POP JUMP INVALID LOG2 PUSH5 0x6970667358 0x22 SLT KECCAK256 0xB8 SIGNEXTEND 0xB5 SWAP2 0x4D PUSH19 0xED47333125C29D23F60B0236F5AB6C751B681D 0xC7 LOG2 REVERT SLT EXTCODECOPY 0x5E 0xBD PUSH5 0x736F6C6343 STOP ADDMOD 0xC STOP CALLER ",
  "sha1": "cfc7f3701f2272cf75e19491d1061c7db6e84ff9",
  "source": "// SPDX-License-Identifier: MIT\npragma solidity >=0.6.0;\n\n/*\n* @title: \n* @author: Anthony (fps) https://github.com/fps8k .\n* @dev: \n*/\n\ncontract Owned\n{\n    address internal contract_owner;\n\n    event MoveOwnership(address, address);\n\n\n\n\n    /*\n    * @dev:\n    *\n    * Initializes the `contract_owner` to whoever deployed the contract.\n    */\n\n    constructor()\n    {\n        contract_owner = msg.sender;  \n        emit MoveOwnership(address(0), msg.sender);\n    }\n\n\n\n\n    /*\n    * @dev:\n    *\n    * Validates that `msg.sender` is the contract owner.\n    */\n\n    modifier isOwner()\n    {\n        require(msg.sender == contract_owner, \"!Owner\");\n        _;\n    }\n\n\n\n\n    /*\n    * @dev:\n    *\n    * Moves ownership of conract from `contract_owner` to `new_contract_owner`.\n    * \n    *\n    * @param:\n    * \n    * address new_contract_owner.\n    */\n\n    function moveOwnership(address new_contract_owner) public isOwner\n    {\n        require(new_contract_owner != address(0), \"0 Address\");\n        contract_owner = new_contract_owner;\n        emit MoveOwnership(msg.sender, new_contract_owner);\n    }\n}",
  "sourcePath": "contracts/Deps/Owned.sol",
  "type": "contract"
}